:020000041000EA
:1000000000B5324B212058609868022188439860DF
:10001000D860186158612E4B002199600221596106
:100020000121F02299502B49196001219960352056
:1000300000F044F80222904214D00621196600F024
:1000400034F8196E01211966002018661A6600F04E
:100050002CF8196E196E196E052000F02FF8012189
:100060000842F9D1002199601B49196000215960AB
:100070001A491B48016001219960EB211966A021F2
:10008000196600F012F800219960164914480160C1
:100090000121996001BC002800D000471248134993
:1000A000086003C880F30888084703B5996A0420EC
:1000B0000142FBD001200142F8D103BD02B5186610
:1000C0001866FFF7F2FF186E186E02BD00000240BE
:1000D000000000180000070000035F00212200005C
:1000E000F4000018222000A00001001008ED00E03C
:1000F00000000000000000000000000074B24E7A12
:1001000000200420F7010010C3010010C5010010F9
:10011000C1010010C1010010C1010010C101001097
:10012000C1010010C1010010C1010010C701001081
:10013000C1010010C1010010C9010010CB01001065
:10014000CD010010CD010010CD010010CD01001037
:10015000CD010010CD010010CD010010CD01001027
:10016000CD010010CD010010CD010010CD01001017
:10017000CD010010CD010010CD010010CD01001007
:10018000CD010010CD010010CD010010CD010010F7
:10019000CD010010CD010010CD010010CD010010E7
:1001A000CD010010CD010010CD010010CD010010D7
:1001B000CD010010CD010010CD010010CD010010C7
:1001C00000BE00BE00BE00BE00BE00BE00F04BF888
:1001D000103800BEF2EB8871A8FA0010C4FA0010C3
:1001E0003402001090A31AE700202149086006C8D5
:1001F00081F3088810471F48006800282FD10DA4FC
:100200000ECC002902D000F012F8F9E71A491B4A77
:10021000002000E001C19142FCD1194988471949E9
:1002200088471949884700BEFDE701C901C29A42C3
:10023000FBD37047C4FA0010C0000020140B00204C
:10024000180501100000042000000420180501100A
:1002500000100420001004200000000070470B482C
:1002600003F08EFE0047EFF30580C0B27047000038
:1002700008ED00E0000000D0180B0020588400209A
:100280005929001065030010152900105756000069
:1002900006005250ABB36053B8F90010060052503C
:1002A000861C0302C8F90010060052505422A29D79
:1002B000D4F9001005005250DE65F46818050110ED
:1002C000F8B5C04610B5064C2378002B07D1054B76
:1002D000002B02D0044800E000BF0123237010BDB2
:1002E000300C002000000000106A0010044B10B514
:1002F000002B03D00349044800E000BF10BDC046F6
:1003000000000000340C0020106A00107047704795
:100310007047000010B5012800D010BD0A4B99426B
:10032000FBD10A4A7821080000F070FA084B1860E7
:10033000084B1860084A8021080000F067FA074B54
:100340001860074B1860E8E7FFFF0000680C00200A
:10035000207D0020640C0020F86B0010500C002061
:10036000F07C0020F8B5CE46474680B500F0A0FCF2
:1003700000F086FC0024FF2C10D8200004F01EFFA3
:10038000EE21890504F0E1FE454904F0DEFE04F0AB
:1003900089FFA300434AD0500134ECE7002000F06D
:1003A000D3FB00F00FFB00F0ABFA0028FBD100F00C
:1003B0009BFA00F099FA4B2000F0C6FBFFF7A6FF6E
:1003C00000F05AFC384B186000239846002602E0E3
:1003D000364B00225A6000F075FA040000F0B4F9C0
:1003E00000F0BAF900F0BEF900F0D4F900F0E2F93B
:1003F00000F0E8F900F0F0F92B4D2D4B2A681A6057
:1004000000F03AFC286000F05DFA0500731C994684
:100410003000FFF77CFF00F055FA401B234BD860FB
:1004200000F050FA050000F06BFA0028FBD100F054
:1004300049FA4346C01A1D4F786100F043FA451B44
:1004400000F040FA80464846FFF762FF00F03AFAB3
:100450004346C01A386100F035FA804600F044FA8D
:1004600000F030FA4346C01A2D1800F02BFA8046EF
:1004700000F0A8FA023600F025FA041BBC60210047
:100480000C4803F0D1FD013038602828A0D9642041
:100490006843210003F0C8FD044B58609BE7C04649
:1004A000DB0FC9404C7D0020E87C0020087D002047
:1004B000FC7C00203F420F0010B502490120FFF7ED
:1004C00029FF10BDFFFF0000F0B5D6464F46464657
:1004D000C0B581468A4608980C14640049460E5BF4
:1004E00034032B4D2C4026432A4C2640350C0F2438
:1004F0002540294C247865430F352D11EDB2EF08C6
:1005000001243C402D19EDB201E038002300471EC4
:10051000002837D01C88200384461D4861460840C7
:1005200004431C4804401020401B60432C007443CB
:10053000241818498C466444210918480840240CA2
:1005400017490C4020439C1C1880002ADDD092449F
:1005500053461B145B004946CE5A33030C4D2B40C7
:100560001E430C4B1E40350C0F232B400A4D2D789B
:100570005D430F352D11EDB2E80801230340ED185E
:10058000EDB2C2E7E0BCBA46B146A846F0BDC046EF
:1005900000000F0F0F0F0F0FF00100200F0F0000D2
:1005A000F0F00000F0B5CE46474680B583B00500B8
:1005B0004B4B5F694B4A14683A1991469E694E4409
:1005C000864200D884E0196A002902D003F02CFD8D
:1005D0006D1A454B1B689846414B99688C4224D84C
:1005E000404B1B68AB4223D9280203F01DFD444653
:1005F0004443240A3A4BDB69002B56D1384B9869A7
:10060000002866D0A84264D2281AFFF7CBFF070063
:1006100020006843310003F007FD0400701B78439D
:10062000310003F001FD241853E02D4B0833D8E7C7
:100630002B4BDA68531801939C4216D8294B1B6840
:10064000AB4214D9681A0002110003F0EDFC070058
:10065000234B18690002642103F0E6FC80235B0051
:10066000181A7843000A181AC1E701ABE7E7AC4251
:1006700006D91B4B18690002642103F0D5FCB6E7CC
:10068000A94510D9281B0002390003F0CDFC8027B2
:100690007F003F1A124B18690002642103F0C4FC6A
:1006A0007843000AA3E70020A1E705F0F3FF0C4B15
:1006B000DF69390003F0B8FC7F08C91B631803D455
:1006C000642B03DC1C0099E7002497E7642495E77A
:1006D0000024E0B203B0C0BCB946B046F0BDC0468D
:1006E000247D0020487D00200002002010B50E4B24
:1006F0001C68002C0CD05968002909D00B4B1868D5
:1007000003F092FC44430A4B18682418094B1C6000
:10071000064B1868421C1A60FFF744FF0100054BA6
:10072000186800F021FA10BD247D0020EC7C002028
:10073000580C00204C0C002010B500F057F8014B6D
:10074000188010BD5084002010B50F230F220F21F8
:100750000F20FFF7F1FF10BD014B0F221A707047F9
:10076000F00100200023064A1360064A1360064B7E
:100770001B68064A196811605A68054B1A60704771
:100780005C0C0020600C0020640C0020FC010020A8
:10079000F8010020014B024A1A607047F401002062
:1007A000C904001010B5024B1860FFF7DBFF10BD45
:1007B000640C002010B5024B1868FFF7F3FF10BD62
:1007C000207D00200023024A1360024A1360704714
:1007D000007D0020047D00200023024A1360024AAD
:1007E00013607047F47C0020F87C002010B50F24C3
:1007F00004401B01FF20184004431202F0200001B6
:10080000024014430803204380B210BDF8B507002E
:100810000E0015000C2005F0A7F80400002303606B
:100820004360836007604660002D02D0A560200011
:10083000F8BD7E43054B9E4204D8700005F098F841
:100840000500F3E701204042F8E7C046FCFFFF3F08
:1008500010B5FFF74BFF012010BD70B50600002456
:1008600001E00134E4B21F2C12D80125A5402E422C
:10087000F7D00521280000F0B5FC0123AB40D022C1
:100880001206936200220121280000F0C3FCE8E771
:1008900070BD70B50600002401E00134E4B21F2CE5
:1008A0000ED80125A5402E42F7D00521280000F0E2
:1008B00099FC0123AB40D022120653629361ECE70E
:1008C00070BD000010B501F0DFFC002900DB10BD99
:1008D000024B034A3F21034802F020F8106A00103F
:1008E0002C6A0010646A0010D0231B065B68DB05CD
:1008F000FAD4D0231B065B68DB05FAD570470000ED
:10090000014B18787047C04652840020154B1B6875
:100910009A68154B1B881BB2002B13DD124B1B88EA
:100920001BB2013B1901C91A0B01D2180E4B1B88CF
:100930001BB2002B0AD00C4B1B881BB2782B03D0A8
:10094000782104E00023F0E73C2100E03C21074B44
:100950001B689B01A020C005844663441A60D961CE
:100960007047C046207D002008020020540C002063
:1009700010B50F4B1968A022D2050E4BD258012397
:100980008B40134210D00C4A13600C4A13881BB2E0
:1009900001331BB21380782B07DD13000122524272
:1009A0001A80074B00221A7010BDFFF7AFFFFBE75C
:1009B000540C00200C0400000C24005008020020FD
:1009C0005284002010B5FFF79BFF002800D010BD17
:1009D000044B01221A70044B00221A80FFF796FF85
:1009E000F5E7C0465284002008020020F0B5C64654
:1009F00000B588B004000D003D4F3E49386805F051
:100A000087F906001022002104A804F0A1FF80232A
:100A10005B020493F8235B0205938023DB020693B9
:100A2000C0231B03069332001232F3011203134357
:100A300005938022D205904607922F4A13404246E2
:100A4000134305930123009301330722290020005B
:100A500005F0E8F9294B0493069B0393284B039A6E
:100A600013400693079B0393264A1A40264B1343D1
:100A70000793264A1340C022520113430793C02311
:100A800000222900200005F05FF9C023C0222900C0
:100A9000200005F08FF9069B03939B009B084246BC
:100AA000134306933A681A4B9A421CD00721072039
:100AB00000F098FB0E4B1A68154B9A4215D007218F
:100AC000062000F08FFB04AB32002900200005F067
:100AD000E1F922680123AB409A431343236008B035
:100AE00080BCB846F0BD0621E1E70621E8E7C04634
:100AF00004020020C86B0010FFFFFF9F00010200EE
:100B0000FFFFF5C1E0FF0FFC07001000FF83FFFFB0
:100B10000000205010B504F051FB084904F0FFFA22
:100B2000074904F045FD074904F00FFBFC21890546
:100B300004F0F0FA04F09CFB80B210BD0000C84243
:100B40003333334000FF7F4710B5FFF7E3FF044B1B
:100B50001B6858400004000C024B186010BDC046D2
:100B60008400054084100540F0B5C64600B5050078
:100B70008846264B1F68380004F020FB011C2448DF
:100B800004F0CDFA041C280004F018FB011C201C02
:100B900004F0C5FA061C04F06BFBC4B2200004F09C
:100BA00013FB011C301C04F0B0FA8321C90504F0CA
:100BB000CCFA04F05DFBC0B224010443154A9466EC
:100BC0003B041B0C536728007843134903F02CFAAD
:100BD0000500404604F0F2FA104904F0A0FA10496A
:100BE00004F0E6FC041C280004F0E8FA211C04F0E0
:100BF000ACFA04F03DFB00040A4B1B685840000CA3
:100C00000004094B186080BCB846F0BD0C020020FF
:100C1000286B6E4D00000540102700000000C84200
:100C20006666E63F700005407010054030B583B041
:100C30000D0014006B46D91D0870D0231B0620221E
:100C40009A61E132FF329A6101220A4805F0D0FE32
:100C5000002C09D0D0231B06802292005A612A0062
:100C60002100044805F0C4FED0231B0620225A614F
:100C700003B030BD00C00340D0231B065868704746
:100C800000B585B001F0DEF8064B02930023019316
:100C9000054B0093054A01235B4201F0A1F905B021
:100CA00000BDC046180B00205108001018FCFFFFC3
:100CB000F0B5DE4657464E464546E0B58DB00022BB
:100CC00009920A920B9210230A93DC480B90DC4B9A
:100CD000882158509A6780201A5004301A500B9A75
:100CE00001925A500A9ADA67012209990A439A67CF
:100CF0000421783800F076FA0020FFF725FF0D2058
:100D000002F066F80A2001F063FA05AB04AA03A911
:100D1000CC4800F00FFA002803D1CA49CA4801F0B4
:100D200097FE059A0499039800F0C8F91720FFF779
:100D300094FD0220FFF7ADFD05F09CF91F211A205C
:100D400000F050FA002200211A2000F063FA00217E
:100D50001A2000F079FABA4C9C239846B74B994672
:100D600043464A46E2508C270025E551083B9B4606
:100D7000E55004339A46E5500B9B01934346019A94
:100D8000E2500A9B019390230199E1500126099BAF
:100D90003343E35104210E2000F024FA882349460E
:100DA000E150A5678022A5500432A5500B9901910E
:100DB000E1500A990191E167099B3343A36704213C
:100DC0000D2000F00FFA414648466050E551594663
:100DD0006550514665500B9901914146019860500C
:100DE0000A9B9022A350099B3343E35198390F206B
:100DF00000F0F8F99549964805F008F90521042016
:100E000000F0F0F9D02424067C3F6762A7616420DB
:100E100001F0DEF967610521092000F0E3F9802384
:100E20009B00994663620521052000F0DBF9202331
:100E3000984663620121062000F0D4F901210720C1
:100E400000F0D0F943466361002200210120FFF742
:100E5000EDFE052001F0BCF97E4A01213620FFF7A6
:100E6000E5FE7D4F3A0001213520FFF7DFFE3A1DF8
:100E70000521B220FFF7DAFE784A01213A20FFF778
:100E8000D5FE774B9A461A0001212620FFF7CEFEA9
:100E9000744A0121B720FFF7C9FE734A0121BB2024
:100EA000FFF7C4FE714A0121C020FFF7BFFE524682
:100EB0000121C220FFF7BAFE6D4A0121C320FFF7CE
:100EC000B5FE6C4A0121C420FFF7B0FE6A4A022138
:100ED000D020FFF7ABFE694A0121C620FFF7A6FE2E
:100EE000674A0E21E020FFF7A1FE664A0E21E120AD
:100EF000FFF79CFE002200212120FFF797FE7320C0
:100F000001F066F9002200211120FFF78FFE002278
:100F100000212920FFF78AFE0C373A0004212A20FD
:100F2000FFF784FE3A0004212B20FFF77FFE00220A
:100F300000212C20FFF77AFE4346A3614B466361F4
:100F4000082000F099F980235B00A3624E4C4F4FBC
:100F500021683868FFF74AFD4D4B1D604D4B082254
:100F600013431E438023DB031E43396823684A4A28
:100F7000914258D008229B183F2B56D8474A16401A
:100F8000DB031E43424C41483F490B681A1D920047
:100F900003689C46624423689B01A025ED05AC468E
:100FA000634400251D605A609D601E612268012314
:100FB00093403B4A136002680868374B9A423AD024
:100FC0000823C018012100F02FFA36490B2000F049
:100FD0003BFA01210B2000F027FA0022069207922B
:100FE000089210230793154B0893154B5A66DA663F
:100FF0001A67089A01925A67079A9A660122069917
:101000000A435A6604210B2000F0ECF8264B1B68BB
:101010001B0C1B04254A13600DB0F0BCBB46B24646
:10102000A946A046F0BD0022A5E7214B214AB621E2
:10103000214801F073FC0023C3E7C046FFFF000016
:101040000000054090D00300EC6A001000127A0006
:1010500000C00340A46A0010B46B0010A86A00101E
:10106000AC6A0010B06A0010B46A0010B86A0010D0
:10107000BC6A0010C06A0010C46A0010C86A001080
:10108000CC6A0010DC6A00104C81002004020020B1
:10109000540C002010801F0000002050FF7FE0FF54
:1010A00004240050710900107000054070100540C4
:1010B000206B0010346B00106C6B0010F0B583B027
:1010C00004000D00160000F013F9002801D003B051
:1010D000F0BD154F00973B0001220121053001F0C2
:1010E000CFFC00962B0022000121104801F0D0FD1A
:1010F00031006943200002F097FF04000C4B00937D
:1011000000220221042001F0BBFC009423000022F5
:101110000121052001F0B4FC00973B0002220021D0
:10112000062001F0ADFCD2E7006CDC02008002403A
:10113000001BB700F0B5DE4657464E464546E0B5C3
:1011400083B080468B4600920193042001F09AFD03
:10115000FA21890002F068FF8246A0235B009946CD
:101160002CE0013C002C20D025007D4329003000DC
:1011700002F05AFF4045F4D12900300002F054FF3C
:101180000029EED173019B1B9B009E19F6005B4664
:101190001E60009B1F60019B1C60012003B0F0BC1F
:1011A000BB46B246A946A046F0BD013F002F01D084
:1011B0003C00D7E701235B429C46E1444B460F2BA2
:1011C00009D956464B465E43044BF218044B9A42EB
:1011D000F0D80727EAE70020E0E7C046508EF4FF8A
:1011E00050F80C0010B58300084A944663441C680C
:1011F00040226240C02414408022520113431C60EC
:10120000C000034B9C466044416010BD04C00140D7
:101210000040014080000B4B9C46604400290DD0EB
:101220000823002A0CD004221343026853400C22E6
:101230001340802252011043036070470023F0E7FF
:101240000022F1E704C00140002909D08000094BC9
:101250009C46604480239B011843402303607047F1
:101260008000044B9C466044C0239B0118434023EC
:101270000360F4E704C0014010B501238340D0228D
:101280001206936293610521FFF7ACFF10BD0000C9
:10129000EFF3108072B6034B1B68002BFBD0BFF33B
:1012A0005F8F70472C0100D0BFF35F8F024B00228D
:1012B0001A6080F3108870472C0100D0F8B5060042
:1012C0000C001500FFF7E4FFE308F718F15C0722B4
:1012D0002240012393400B4205D1DBB20B433B700C
:1012E000FFF7E2FFF8BD2100280001F0B1FB00008C
:1012F000034B1B6802201840431E9841C0B2704740
:1013000000C00640002307E0054A9A189200BFF388
:101310005F8F0021116001331F2BF5D97047C04644
:1013200040000034054A1078431CDBB21370172BC1
:1013300002D9130010221A707047C0461002002014
:10134000074B9B68103080001950BFF35F8FBFF3CD
:101350005F8F044B0021196082F310887047C046EC
:1013600000ED00E0240100D010B5091A081F0A4B57
:101370009C466144094A914208D8C30706D44010EC
:101380004005400D064B184380B210BD054B064A80
:101390009921064801F0C2FAFC070000FE0F000088
:1013A00000E0FFFFF8EB001034EE001028EC001016
:1013B00010B5091A04394C08090B08D14905490D23
:1013C000064A11430180064B2343438010BD054B61
:1013D000054AA121054801F0A1FAC04600F0FFFF2F
:1013E00000F8FFFF60EC001008EE001028EC001081
:1013F00001238340034A10681840431E9841C0B23D
:101400007047C04600E100E0002904D0034B18609B
:10141000034B18607047034B1860FBE780E200E065
:1014200000E100E080E100E010B5012383401800F6
:10143000FFF7EAFF10BD0000024B9B6810308000F0
:10144000C058704700ED00E070B504000D00EFF3E8
:10145000108672B60C4B1B68002BFBD0BFF35F8F5E
:101460002000FFF7E9FF094B984201D0A84205D1BF
:10147000320029002000FFF763FF70BD044B054ACE
:101480007C21054801F04AFA240100D0CD0100106A
:1014900070EC001050EE001028EC0010F0B5CE46B5
:1014A000474680B583B006000D00EFF3108872B692
:1014B000564B1B68002BFBD0BFF35F8F544B9A68D1
:1014C00034001034A300D758524B9F4207D0AF428C
:1014D00000D199E00197504BFB1A2F2B09D94246B6
:1014E00039003000FFF72CFF03B0C0BCB946B0464E
:1014F000F0BD3000FFF77CFF814600213000FFF790
:1015000093FFBFF35F8FFEF7AEFE002801D0844249
:1015100011D10123019C9C430022A368AB4212D04D
:101520000622A256002A0DDB53009B189B002200C6
:10153000394CE418F1E72C21384B394AFF3139484E
:1015400001F0ECF92200AB4257D106256557002D7A
:1015500039DB6B005B199A002F4B9B189A68A260CD
:10156000DA79E27106229A56A2719B795BB2002B5E
:1015700010DABD200002A0806B005B199B00264A98
:10158000D318294A11789971157049463000FFF730
:101590004BFFA4E7201D6B005B199B001E4A9B18A4
:1015A0001A1D9B88D90A1C2907D15B055B150233DC
:1015B00059005118FFF7D8FEDDE71C4B1C4AA72144
:1015C000184801F0ABF9002812D1002A0ED0FF23F1
:1015D0009371184B9380144A1378A371164B0E49DC
:1015E000641A644163431B0D1370CEE7094FF2E7A1
:1015F000201D1249FFF7DCFEC7E76021104B084AA7
:10160000FF31084801F08AF9024F68E7240100D051
:1016100000ED00E0CD0100101402002084ED001068
:1016200020EE001028EC0010548400206CED001017
:1016300040EE001000BDFFFFAAAA00004E020020ED
:10164000A8ED001070B50400012606432D4BF31AD7
:101650002F2B28D8FEF707FE00282BD0EFF3108C95
:1016600072B6294B1B68002BFBD0BFF35F8F274D51
:1016700022002449521A524155432D0D6DB2244B7C
:101680009B6880001B58B3421BD00022032A32D82B
:1016900053009B189B001B49CB189B795BB2AB4254
:1016A0001FD00132F2E7C2211A4B1B4A49001B48E6
:1016B00001F034F988211A4B174AFF31174801F01D
:1016C0002DF9134B9B68174A1A50174B1A78A271C1
:1016D0001D70BFF35F8F0C4B00221A608CF31088D3
:1016E00070BD08005300991889004118FF268E71BB
:1016F0000E4A8A80E9E7CC210D4B074A490007488A
:1017000001F00CF914020020240100D0AAAA000064
:1017100000ED00E0B0ED0010ECED001028EC001042
:10172000D8ED0010CD0100105484002000BDFFFF53
:10173000E4ED00100022044B02E0044902C3013230
:10174000072AFAD97047C04600E400E08080808014
:10175000024B9C46614489000160704740000034A0
:1017600010B50C00CB68834207D108000B6998477D
:10177000002809D02068616810BD9621054B064AF3
:101780004900064801F0CAF80023E3600020002168
:10179000F2E7C0466CEE001098F0001080EE0010EA
:1017A00070B505000C00080000F062FD200000F09C
:1017B00047FE0849200000F087FDFFF7B3FD064B08
:1017C0009C466044800068602C75A400034BE55083
:1017D00070BDC046E51A0010400000342882002089
:1017E0000A4B1A68EFF3108172B61368002BFCD015
:1017F000BFF35F8F054B1B68BFF35F8F00221A603A
:1018000081F3108840BF0020002170473C840020F5
:1018100010B5002922D003681B7B99421ED8174BB4
:101820009C466144090183689C4661440C68496890
:10183000002A19D003681B7B9A4215D883680F4889
:101840008446624412019A1810685368020001200D
:101850008B4201D80ED00020C0B210BD084B094AFF
:101860003B21094801F05AF8054B064A3B2106483E
:1018700001F054F8A242EFD8EDE7C046FFFFFF0F9A
:10188000B4EE0010E8F0001080EE001010B5002952
:101890001ED0037B99421BD84B005B18033B0468A6
:1018A000A4466344002919D0002A1DD0914221D0BA
:1018B000002A25D0047BA24222D804685000801858
:1018C000033820188170197800291FD11A7010BDB3
:1018D000104B114A6821114801F020F8104B114AB1
:1018E0006F310E4801F01AF80F4B0E4A70210B4869
:1018F00001F014F80D4B0B4A7121084801F00EF865
:10190000044B054A6821054801F008F841701A7037
:10191000DDE7C046E8EE001054F1001004EF0010BF
:1019200048EF001030F1001054EF001060EF00108D
:1019300070B506000D001400002914D0002A14D040
:10194000806873689847002806D02200290030007C
:10195000FFF79CFF280007E02A0021003000FFF776
:1019600095FF200000E0100070BD0800FCE70000BB
:10197000F0B583B00500009201930AAB1C780BAB65
:101980001F78002C26D003685A7B944207D101238C
:10199000002B19D1002C3BD1200003B0F0BD002C4E
:1019A0000CD01A7B944209D81A6863001B19033BB8
:1019B000D3189B78002BEBD00123E9E73E4B3F4A3D
:1019C00068213F4800F0AAFF3E4B3F4A65213F484F
:1019D00000F0A4FF03689C7B002CDBD012D01A7BA4
:1019E00094420FD862001219033A19688C46624477
:1019F00051789973002900D1D973002393705370E3
:101A00001370C7E72C4B2D4A68212D4800F086FF44
:101A1000002C3AD02B681B7B9C4236D82C4BE31809
:101A20001B01AA6894466344009A1A60019A5A609E
:101A3000089A9A60099ADA602E68002C2BD030D070
:101A4000337B9C422DD863001B19033B32689446BC
:101A5000634400229A705A701A70717B2200300021
:101A6000FFF766FF7073844200D095E7287D009AE7
:101A7000019B00F071FC061E01D0002F17D00C9BBB
:101A8000002B00D188E71E7086E7124B124A3B21DB
:101A90000E4800F043FF114B114AA521084800F001
:101AA0003DFF054B054A6821054800F037FF2868CF
:101AB000210000F079FEE2E7E8EE001054F100109A
:101AC00004EF001078EF001060F1001080EE0010BD
:101AD000FFFFFF0FB4EE0010E8F000107CEE0010E6
:101AE00044F10010F0B5DE4657464E464546E0B597
:101AF0008BB00990002308938200B24BD658370070
:101B000032E0B14BB14A3F21B14800F007FFB14B81
:101B1000B14A3B21B14800F001FFB14BB14A8C21E1
:101B2000AE4800F0FBFEB04BAE4A9021AB4800F04F
:101B3000F5FEA84BAD4A4021A84800F0EFFE2A6808
:101B40006B68099800F008FC00239A4698467B6869
:101B5000BFF35F8F00221A6086F310884346002B84
:101B600051D1002800D126E100F08EFB02000B1EAF
:101B7000C7DB00200021069007917868EFF31086FC
:101B800072B601680029FCD0BFF35F8F39688846C0
:101B90004C7B002C32D0BAD0097B8C42B7D8944908
:101BA00065182D01B9688C46654428686968801AF3
:101BB00099410029C3DC01D10028C0D10021404651
:101BC00000F0E8FDA042A8D12A686B68069207934E
:101BD000AB689846EB689A464346002BA3D0002C8E
:101BE000A7D03B681B7B9C42A3D8631EFA68D35CDA
:101BF00008931B02184338610020A8E700239A4687
:101C000098460020A3E7089B1B02234399465146B0
:101C10001800C04705000E007A68EFF3108B72B60B
:101C2000136859424B41D9B2002BF9D1BFF35F8FF2
:101C3000002E26DB002E52DD3B69002B53D04B4596
:101C400072D100F021FB02000B1E73DB01001800B3
:101C500052197341984202D804D1914202D901220B
:101C60005242D317002B6BDB002104910131039109
:101C7000029451460191414600913800FFF778FEE9
:101C800049E03B69002BD5D04B451CD1069A079BF8
:101C900010001900521BB341994202D804D190425E
:101CA00002D901225242D317002B12DB00210491EA
:101CB000013103910294514601914146009138004F
:101CC000FFF756FE27E04B4B464A9F21434800F062
:101CD00025FE3D4B3D4A3F213D4800F01FFE002EB2
:101CE00001D1002DA8D13A68002C45D0537B9C42ED
:101CF0002CD1012100293FD1D37B002B42D1D473B9
:101D0000002C52D03B681B7B9C424ED8FA68013CA9
:101D1000135D0133135500233B617A68BFF35F8F76
:101D200013608BF310881FE7324B2E4AA2212B48F9
:101D300000F0F4FD244B254A3F21254800F0EEFD3C
:101D4000214B224A3F21224800F0E8FD002C0DD013
:101D5000137B9C420AD863001B19033B106884461E
:101D600063449B78002BC5D00121C3E7224B234A53
:101D70006821234800F0D2FD224B234AF621204857
:101D800000F0CCFD002B0AD0117B8B4207D8590004
:101D9000CB18033B11688C4663445C70AFE7164B6D
:101DA000164A6821164800F0B9FD0A4B0F4A402137
:101DB0000A4800F0B3FD0BB0F0BCBB46B246A946E2
:101DC000A046F0BD28820020106A0010B4F0001078
:101DD000646A0010B4EE0010E8F0001080EE00100D
:101DE000A0EF0010CCF00010B8EF00100CF10010C4
:101DF000FFFFFF0FC4EF0010E8EE001054F10010D9
:101E000004EF001000F0001020F1001010B50A4B94
:101E10005B68002B04D00A210848FFF799FC10BD2D
:101E2000054C2300064A1021206800F0D3FB032153
:101E30002000FFF7B5FCEEE75C0200203C840020A8
:101E40001118001010B5064B5B68002B01D0044838
:101E500010BD044B044A5C21044800F05FFDC046FD
:101E60005C02002024F00010F4F0001080EE00105E
:101E7000F0B5DE4657464E464546E0B58BB0804647
:101E800016001F00149B9A46159B994616AB1B78AB
:101E90009B461F2302AA9446634400221A7032E034
:101EA000002809D042461268127B904204D8421E94
:101EB0004146C9688A5C48E0434B444A4021444853
:101EC00000F02CFD0798002B75D05B46002B72D0DC
:101ED0004946D04704000D0003000B4300D171E0D8
:101EE000002946DB00F0D0F906000F1E55DB36193D
:101EF0006F41B94202D804D1B04202D901267642DC
:101F0000F717002F4FDB43465A68EFF3108472B681
:101F1000136859424B41D9B20791002BF8D1BFF356
:101F20005F8F1F3302AA94466344049300230393F4
:101F300002934B4601935346009332003B004046C8
:101F4000FFF716FD031EABD1020041464968BFF3FF
:101F50005F8F00250D6084F31088002B29D01F238C
:101F600002A98C4663441B78002BABD112021043AC
:101F7000A9E732003B00361BAF41BB4202D804D177
:101F8000B24202D901267642F717002FBBDA114B75
:101F9000114A3F21114800F0C1FC0E4B0E4A3F216F
:101FA0000E4800F0BBFC0B4B0B4A3F210B4800F0E6
:101FB000B5FC012040420BB0F0BCBB46B246A9467E
:101FC000A046F0BD0798F6E7B4EE00100CF1001043
:101FD00080EE0010106A0010B4F00010646A001067
:101FE000F0B585B00700100019000C9E13000B43DC
:101FF00001D101200021B7600A9B3361306071601C
:102000000B9B7361CA1713005040040051400D0030
:10201000A41A9D4100F038F902000B1E1ADB0100E2
:10202000180012196B41984202D804D1914202D98A
:1020300001225242D317002B12DB0121029101969B
:102040000A4900913800FFF713FFF060C043C00F4A
:1020500005B0F0BD064B074A3F21074800F05EFC83
:10206000034B044A3F21044800F058FC611700105C
:10207000106A0010B4F00010646A0010F0B587B068
:1020800006000F00FEF7EFF800281FD10624644277
:10209000E517A4197D41BD4202D803D1B44201D94C
:1020A00000240025002D14DB0494059500F0ECF8C5
:1020B00002000B1E13DBA41A9D41002D17DC14D067
:1020C0003000390000F0ECF807B0F0BD234800F014
:1020D000BFFC234B234A3F21234800F01FFC204B29
:1020E000204A3F21204800F019FC002CE8D0FFF7DF
:1020F000A9FE0023029301931C4B0093049A059BB5
:10210000FFF7B6FE002818DADAE7002300E0002324
:10211000002BD5D1164B1A68EFF3108172B61368F5
:10212000002BFCD0BFF35F8F114B1B68BFF35F8F99
:1021300000221A6081F3108820BF0499059A0D4B84
:102140005B6A9A42E3D80B48806A884203D29A427B
:10215000DBD00123DCE70123DAE7C04648F00010BA
:10216000106A0010B4F00010646A0010E11700104B
:102170003C84002000400540F8B504000D0000F04C
:1021800083F802000B1E10DB200029008018594143
:102190008B4202D804D1824202D901204042C117A9
:1021A000002908DBFFF76AFFF8BD064B064A3F210E
:1021B000064800F0B3FB034B034A3F21034800F0FD
:1021C000ADFBC046106A0010B4F00010646A001045
:1021D00010B5FA2292000023002102F079FFFFF7E8
:1021E000CBFF10BD70B5EFF305833F2018401038CA
:1021F000EFF3108C72B6194B1B68002BFBD0BFF3AA
:102200005F8F012319008140154A5163154A1278E6
:102210001400C440234214D0114B5C6A8300124D59
:102220005B599C4206D38300104C1B598A430D49CD
:102230000A7007E00A4A031D9B0099589950002331
:1022400000E00023BFF35F8F044A002111608CF38C
:102250001088002B00D0984770BDC046280100D0E0
:10226000004005405584002040840020A0810020CB
:1022700010B50100024A0348FFF720F810BDC04620
:1022800078F1001053840020044B5B6A034A906A83
:102290001900536A9942F9D17047C0460040054081
:1022A000084B5B6A01E0074B5B6A8B42FBD301E0A2
:1022B000044B5B6A8B4203D1024B9B6A8342F7D388
:1022C0007047C0460040054070B504000D00EFF3B4
:1022D000108672B61B4B1B68002BFBD0BFF35F8FC1
:1022E000002D1CD02000FFF7A7F8174B83420BD01E
:1022F00019002000FFF7A8F801212000FFF794F84B
:102300000123A340114A1360A400114BE550BFF311
:102310005F8F0C4B00221A6086F3108870BDA200FC
:102320000B4B0021D1500122A2400A490B78934364
:102330000B7005492000FFF7B1F800212000FFF7DE
:1023400073F8E4E7280100D0E5210010386005406B
:10235000A081002055840020F0B5DE4600B584B091
:102360000400150001921E000293FFF78DFF0395F4
:102370008E4202D84ED185424CD9EFF3108B72B603
:10238000274B1B68002BFBD0BFF35F8F254A1778C4
:102390000125A540EBB23B431370234B5D63221D27
:1023A00092000199D150A2002049029850501B6A16
:1023B0002B4212D11C4B1B6C2B4208D00020BFF3C8
:1023C0005F8F174B00221A608BF3108823E0184BA5
:1023D000184AC121184800F0A1FAFFF755FF8E42B4
:1023E00014D802D1039B834210D80E4B1B78BB42FA
:1023F0000ED00D4B1D625D631F2004400123A340DE
:102400000E4A1360074B1F701E38D8E70020D6E72E
:102410000120D4E7012004B080BCBB46F0BDC0461B
:10242000280100D055840020004005404084002051
:102430009CF10010FCF10010C0F1001080E200E0FF
:10244000EFF3108C72B60B4B1B68002BFBD0BFF365
:102450005F8F01238340084A136208490A789A4330
:102460000A70BFF35F8F034B00221A608CF3108851
:102470007047C046280100D0004005405584002028
:1024800010B500291ED0037B99421BD84B005B1866
:10249000033B0468A4466344002919D0002A1DD0D8
:1024A000914221D0002A25D0047BA24222D8046880
:1024B00050008018033820188170197800291FD126
:1024C0001A7010BD104B114A6821114800F026FA0D
:1024D000104B114A6F310E4800F020FA0F4B0E4A94
:1024E00070210B4800F01AFA0D4B0B4A7121084875
:1024F00000F014FA044B054A6821054800F00EFA72
:1025000041701A70DDE7C046E8EE001000F30010DD
:1025100004EF001048EF0010ECF2001054EF001030
:1025200060EF001070B506000D001400002914D0F3
:10253000002A14D0806873689847002806D02200CB
:1025400029003000FFF79CFF280007E02A00210047
:102550003000FFF795FF200000E0100070BD08007C
:10256000FCE7000010B50023437301338373037B42
:10257000C3730123027B9A4214D9002B0CD0027B37
:10258000934209D85A00D218033A01688C46624433
:102590000133DBB25370EDE70B4B0C4A68210C485A
:1025A00000F0BCF9002A09D0924207D80168530014
:1025B0009A18033A8A180023537010BD024B034A3D
:1025C0006821034800F0AAF9E8EE001000F30010BB
:1025D00004EF001010B5017342608360FFF7C2FF83
:1025E00010BD000070B50400081E00D170BD0029A8
:1025F00034D0237B994231D84B005B18033B2268CF
:10260000944663445A78002AF0D02DD0237B9A4216
:102610002AD853009B18033B21688C4663445D789D
:1026200000215970002825D0237B984222D84300EE
:102630001B18033B21688C4663440021597001003C
:102640002000FFF76FFF060029002000FFF7CAFFF8
:10265000020031002000FFF765FFC7E7084B094A79
:102660006821094800F05AF9054B064A68210648D6
:1026700000F054F9024B034A6821034800F04EF978
:10268000E8EE001000F3001004EF001070B5050034
:102690000C001600002928D02DD0037B99422AD89F
:1026A0004B005B18033B0268944663445A78002A47
:1026B00027D19A78002A2AD11978FFF793FF0300CF
:1026C000002E03D0EA7B002A27D1EC73002B37D1F0
:1026D000002C49D02B7B9C4246D82B6861000C19FA
:1026E000033C1C190023637070BD224B224A382121
:1026F000224800F013F9224B224A6821224800F0B8
:102700000DF9224B1C4A3A211C4800F007F9204BD6
:10271000194A3B21194800F001F9002A0AD0297B07
:102720008A4207D851008A18033A29688C466244C5
:102730005470CAE7124B134A6821134800F0EEF8B0
:10274000002B0BD02A7B934208D843001B18033B75
:102750002A689446634400229A70B9E7084B094AF4
:102760006821094800F0DAF8054B064A6821064856
:1027700000F0D4F818F20010D8F2001020F2001087
:10278000E8EE001000F3001004EF001054F2001007
:102790007CF2001070B504000A00457B2900FFF7A9
:1027A00075FF6073280070BD70B50400002967D004
:1027B000437B8B420ED0002911D0037B99420ED867
:1027C0004B005B18033B0268D0188378002B0CD1B8
:1027D000002056E00121FFF7DDFF012051E0294BE9
:1027E000294A6821294800F099F8002B20D0227B43
:1027F00093421DD85A00D318033B2268D21825688B
:10280000EB5C8B421AD0002B1BD0227B934218D852
:102810005A00D318033B2268D21853788B4216D043
:10282000002BF0D11A4B1B4A67211B4800F076F8A9
:10283000144B154A6821154800F070F8437813705E
:1028400007E0104B104A6821104800F067F8437801
:10285000537000238370437001222000FFF716FF9E
:102860000200617B814205D02000FFF75BFE6073B0
:10287000012006E0094B074A6D21074800F04EF899
:10288000002070BDE8EE001000F3001004EF00100F
:10289000E4ED0010C0F2001020F20010A0F20010D1
:1028A00010B50400FEF73EFD01002000FEF750FFCA
:1028B000FF232371BFF35F8F10BD10B50400FEF737
:1028C00031FD01002000FEF743FFFF2323710023A9
:1028D0006371BFF35F8F10BD00BEFDE703000A4ABE
:1028E0001268002A08D0084A1068C318074A9A429A
:1028F00006D3054A13607047034A05491160F2E7A1
:1029000001204042F7E7C046248200200000042056
:102910005884002010B5FFF7DFFF000010B582B02B
:102920000C001900002A0CD0084B002A0BD0019291
:10293000009323000200064803F046F90120FFF748
:10294000CBFF044BF1E7034AF1E7C046A0F30010C8
:10295000B0F30010ACF3001070B52B4B2B4A1A608B
:102960002B4B2C4A1A602C4B9A682A4B9343FAD172
:102970002A4C01E008CC9847294B9C42FAD300F03E
:1029800001F9234B274A1A60234B9B68DB43DB0189
:10299000FAD1254B40229A675A671A67DA66234CA8
:1029A00009E0234B234A83212348FFF7B7FF200088
:1029B000FFF776FF0834214B9C4209D22368002B95
:1029C000F5D0012BEDD12000FFF777FF0834F2E7B7
:1029D0001B4CA1681B4DC022280002F0BFFFA56060
:1029E000FDF741FC002800D000BEFEF78BFCFEF78F
:1029F000A1FEFFF70BFA144C01E008CC9847134BEB
:102A00009C42FAD370BDC04600E00040BFCDFBFE43
:102A100000F00040FE7F3C0000C00040F80A0020AB
:102A2000080B0020FFFFFF0100F00140F00A00202A
:102A3000E0F3001050F4001000F40010F80A002039
:102A400000ED00E000000020080B0020140B002027
:102A50000FB400B583B0084803F084F8049B002B42
:102A600007D005A90191180003F08CF8034803F082
:102A700079F80120FFF730FF3CF400104CF400100F
:102A8000F8B5DE4657464E464546E0B505000F0010
:102A900092460A9A93424ED31A0E91461E020A9A01
:102AA00000233000494601F001FB80466C006419A8
:102AB000A4002F4B9C4664446368834200D260604C
:102AC0002B1FDBB29B46012B3BD9C0239B01234329
:102AD000802212011A60AB00264A9958002905D0BD
:102AE000506901F0A1FA01300138FDD153465A0175
:102AF00023685A40E0231A4080235B0123431A6075
:102B00005A46012A28D980239B012343802212019F
:102B10001A6043466360424600233000494601F094
:102B2000C5FAAD00134B58510120F0BCBB46B2466C
:102B3000A946A046F8BD104B104A2D211048FFF7BA
:102B4000EDFE012FC1D1C0239B01234303221A6054
:102B5000A368DB07FCD5C9E72168794003220A4056
:102B60001A60A2680123BB401342FAD0CBE7C046EB
:102B700000800040B081002060F40010B4F4001028
:102B800074F4001030B583B00C2000F02FF9FEF77C
:102B9000AFFB00280DD0002304E099002D4A2E48F9
:102BA00088500133092BF8D92A4B2C4A5A6203B0BA
:102BB00030BD2B4B00229A6700F020F9294B0122EF
:102BC0001A60274B5B6C012BFBD1274B03221A6049
:102BD000234B9B6B012BFBD1013300930433234A1E
:102BE0000121234800F054F805230093214A0121D4
:102BF000214800F04DF8214B0093002202210420CF
:102C0000FFF73EFF1E4D00952B00002201210520FD
:102C1000FFF736FF104C009423000022002107200C
:102C2000FFF72EFF00942300002200210820FFF769
:102C300027FF0A4B00932300002200210920FFF701
:102C40001FFF00952B00002200210620FFF718FF30
:102C5000ADE7C046B0810020006CDC021BB700006D
:102C6000008000403CB0004030B00040002F685968
:102C700000800240008C864700C00240001BB70065
:102C8000405973078000014BC0587047B081002045
:102C9000F0B5C64600B504000F0090461D000C209C
:102CA00001F0C2F906003D4A42443D4B9A4243D8E6
:102CB00043011B1A9901C91AC90009188901404624
:102CC00001F0B2F90200103A98235B009A4239D819
:102CD0006B1E062B3CD8069B013B062B38D8069B67
:102CE0009D423BD343461A09B2423DD32D04069B75
:102CF0001E0335432368002B3CDB2A4B9C424AD001
:102D000080225201284B1A60284B1A60284B9B687E
:102D100011009943FAD12760A060231DC0229201BF
:102D20001A43212313602368002BFCDAE560082393
:102D3000136080BCB846F0BD1E4B1F4A11211F48CE
:102D4000FFF7ECFD1E4B1C4A19211C48FFF7E6FD5E
:102D50001C4B194A1C211948FFF7E0FD1A4B164A73
:102D600022211648FFF7DAFD184B134A2521134894
:102D7000FFF7D4FD22683F231340BB42BDD1A368B7
:102D80001B051B0D8342B8D1E368EE22D20213402B
:102D9000AB42B2D1CDE780229201B3E780E84BD3BA
:102DA00080F8A93200C0024000E0004000F000407E
:102DB00000C00040C4F40010F8F5001024F5001025
:102DC0005CF5001078F50010C4F50010DCF500107B
:102DD0000001044B1B685840F0231840024B186058
:102DE0007047C046004006400050064080239B00CC
:102DF0000343014AD362704700800540064BAA2274
:102E000012011A602F22DA60044B054A1A60024B45
:102E10005B68002BFBDA7047004002400060024014
:102E200000B0FA00704710B5002802D00B6849685E
:102E3000984710BD0100002007E083001B185B00CD
:102E4000501C08601078C01830380A681378303B7E
:102E5000DBB2092BF1D97047F0B5DE4657464E4636
:102E60004546E0B583B093461F000C9B9A460D9CE7
:102E70000E9B99460F9B9B0703D0B8460F00060098
:102E800022E00192A34688464E46B9460700B44266
:102E900007D2551C4B4641462020B84701342A0032
:102EA000F5E73D004F465C46019B9B46B1464646D2
:102EB000B84637002E0007E0013C551C5346185D0C
:102EC00043463900B0472A00002CF5D135003E00BA
:102ED00047460F9B9B0707D4100003B0F0BCBB46CE
:102EE000B246A946A046F0BDB0464E46B9462F00B0
:102EF0005D46531BB342EFD2541C4B464146202043
:102F0000B8472200F5E7F0B5CE46474680B585B014
:102F1000944698460C9D0D9C0EAB1B789946109AD2
:102F2000119B129EB7071CD4002B0CD0F7070AD5B3
:102F30004F46002F02D10C37374204D0013B02E04C
:102F400030272F550134944201D21F2CF8D9F707AE
:102F500007D59C4205D21F2C03D830272F550134AA
:102F6000F5E7F70615D5770505D4002C03D0944274
:102F700024D09C4222D00F9A102A2BD00F9A102ACC
:102F800030D00F9A022A35D01F2C02D830222A5571
:102F900001341F2C05D84A46002A31D02D222A554B
:102FA0000134039602930194009543466246FFF76D
:102FB00053FF05B0C0BCB946B046F0BD621E012C3F
:102FC00006D00F9F102F01D01400D4E7023CD2E7A7
:102FD0001400D0E7B206D1D41F2CCFD878222A55BE
:102FE0000134D1E7B206CCD51F2CCAD858222A55B5
:102FF0000134C9E71F2CC7D860322A550134C3E712
:10300000720703D52B222A550134CAE73207C8D5E7
:1030100020222A550134C4E7F0B5DE4657464E4615
:103020004546E0B593B081468A46089209931CABA9
:1030300010CB1B789B461E9D219B9846002C03D1EC
:10304000102342469A4390468023DB0046461E40AA
:1030500042461A4212D0002C22D000260EE0303315
:10306000D9B2771C0AAB99552900200000F0DCFF8B
:10307000AC4216D31F2F14D83E00040029002000B4
:1030800000F0D2FFCBB2092BE9D94246920605D512
:103090004121C918C9B20A39C9B2E2E76121F8E78A
:1030A000270043460693209B05931F9B049303959B
:1030B0005B46029301970AAB0093099B089A51461D
:1030C0004846FFF720FF13B0F0BCBB46B246A94606
:1030D000A046F0BDF0B5DE4657464E464546E0B543
:1030E00095B0089009910A920B931E9E1F9C20ABED
:1030F0001B789B46229B9946239D269B9A4633002C
:10310000234303D1103352469A4392468023DB0077
:1031100057461F4052461A4219D0330023432DD040
:10312000002714E03033DAB27B1C98460CABDA553A
:103130004A462B003000210000F0B8FFA5421FD8FE
:1031400019D043461F2B1BD8474606000C004A46A1
:103150002B003000210000F0A9FFD3B2092BE1D9E8
:103160005246920605D54122D218D2B20A3AD2B2BC
:10317000DAE76122F8E7B145E3D901E00023984698
:1031800053460693259B0593249B04934B46039338
:103190005B460293434601930CAB00930B9B0A9A48
:1031A00009990898FFF7AFFE15B0F0BCBB46B246D0
:1031B000A946A046F0BD0000F0B5DE4657464E4693
:1031C0004546E0B591B083468A460C9298461A9CD3
:1031D00008941B9D099522002B002000290001F076
:1031E000F4F9002800D0E5E001225242D74B20003C
:1031F000290001F0E5F9002800D0DBE0012252426D
:10320000D34B2000290001F0C5F9002800D0D1E0FF
:1032100000220023089E3000099D290001F0BAF920
:10322000002800D0DDE008980999069007918023D6
:10323000DB001E9A1A400D921E9A1A4201D10623F3
:103240001C930698079904000D000A00060002432B
:1032500000D1D1E0080D4005400DBE4CA4466044AD
:103260000A03120BBC4B13431F0001F0C1F9BB4A08
:10327000BB4B01F04CF9BB4ABB4B01F021F90400F8
:103280000D000022B94B3000390001F010F9B84AA6
:10329000B84B01F03CF902000B002000290001F0BE
:1032A0000FF901F0BDF9814601F0A2F904000D000B
:1032B000B14AB24B01F02BF90022B14B01F000F9F9
:1032C00001F0AEF90600AF4AAF4B2000290001F033
:1032D0001EF904000D00300001F08AF9AB4AAC4B36
:1032E00001F015F902000B002000290001F0DFF8C1
:1032F00004000D0002000B0001F009F90A900B9187
:10330000A44BF31800261F0522002B0020002900E3
:1033100001F0D6F80E900F9122002B0000208021A2
:10332000C90501F0C4F804000D0000229A4B0A9868
:103330000B9901F0CEF80022984B01F0C1F8020081
:103340000B000A980B9901F0C4F80022944B01F08D
:10335000B7F802000B000A980B9901F0BAF80200C6
:103360000B002000290001F0ABF802000B000E98C2
:103370000F9901F0AEF80022774B01F0A1F832006E
:103380003B0001F0C4F806000F0004000D00069A8F
:10339000079B01F015F9002830D001235B429C46C1
:1033A000E14400227D4B3000390001F092F8040026
:1033B0000D0023E01E9B04931D9B03931C9B029313
:1033C000089A099B0092019343460C9A514658462D
:1033D00000F0FCF811B0F0BCBB46B246A946A046CE
:1033E000F0BD0023002406930794069680231B0655
:1033F0009C46654407951AE7002399464B4663337C
:10340000C62B1ED804261E9B1B0526D52B00234346
:103410000FD0644A644B0698079901F0C9F8002858
:1034200079D00022614B0698079901F0B3F8002883
:1034300071D01C9B4B4506DD4A46981A431E1C93CF
:1034400003E00526DFE700231C938023DB001E9AA0
:103450001A431E920026002399461D9B9E4264D269
:103460009F1B02231E9A1A400A921E9A134202D0F0
:10347000002E00D000274B46002B07D022002B0047
:103480000698079901F025F806900791002200237D
:103490000898099901F07EF8002848D1444B1E9AFB
:1034A0001340049303971C9B0293069B079C009375
:1034B000019443460C9A5146584600F087F8002E76
:1034C00000D187E71E9B9B063DD54525441C4346FE
:1034D000020051462800D8474B46DA179B18534044
:1034E00005220592013E0496002203920A320292BE
:1034F0004A46D00F01900093434622005146584659
:10350000FFF78AFD0A9B002B00D163E702005F46AC
:103510000C9E1D9D54E01C9B002B9ED00D9B002BF0
:103520009BD01C9B013B1C9397E7002799E7069CC7
:10353000079D2200290080200006844661440B007C
:1035400006920793AAE76525C0E7C046FFFFEF7F15
:10355000FFFFEFFF01FCFFFF0000F03FFB799F50F2
:103560001344D33FB3C8608B288AC63F0000F83F9E
:1035700061436F63A787D23F71A379094F930A40D4
:103580000000E03F1655B5BBB16B0240EF39FAFEC3
:10359000422EE63FFF03000000002C4000002440C4
:1035A000000018402D431CEBE2361A3F80842E4168
:1035B000FFF7FFFF541C434651462020B847220026
:1035C000931BAB42F6D3100004E7C046F0B5DE46CD
:1035D00057464E464546E0B595B00690079193464E
:1035E0009946209F1E9A1F9B1000190000F0EDFFC6
:1035F000002831D101225242BF4B1E981F9900F082
:10360000C9FF002837D101225242BC4B1E981F9996
:1036100000F0D6FF00283DD10022B94B1E981F991B
:1036200000F0CEFF002850D10022B64B1E981F9903
:1036300000F0B0FF002848D1002200231E981F99F7
:1036400000F0A8FF002850D100239846229B5B057C
:1036500000D4B6E0002458E0229B0393219B029300
:1036600003230193A84B00934B465A4607990698AB
:10367000FFF7F2FB0EE1229B0393219B02930423AD
:103680000193A24B00934B465A4607990698FFF7C1
:10369000E3FBFFE00423229A1A4022990B4210D048
:1036A0009B4B002A0FD00422229903912199029169
:1036B000019200934B465A4607990698FFF7CCFBB8
:1036C000E8E0944BEDE70322EEE7229B0493219B75
:1036D000039302971E9B1F9C009301944B465A46EE
:1036E00007990698FFF768FDD4E01E9A1F9B0020FB
:1036F000002100F0DCFE1E901F9101239846A5E7F3
:103700000CAB30221A55013F01341F2C01D8092F70
:10371000F6D81E981F9900F083FF050000F068FF9F
:1037200002000B001E981F9900F0C1FEFA007A4BB0
:103730009B181A685B680A920B9300F0E8FE0890E9
:10374000099100F091FF060000F04EFF02000B000F
:103750000898099900F0ABFE0890099100226F4B80
:1037600000F02EFF00282ED00136300000F03CFF84
:1037700002000B000A980B9900F012FF002801D0FC
:1037800001350026002F2CD1280000F031FF020067
:103790000B001E981F9900F08AFE06000F00002201
:1037A0005E4B00F0F7FE002846D100225B4B300054
:1037B000390000F005FF00283ED1EB073CD501356C
:1037C0003AE0062746E70022544B0898099900F092
:1037D000E1FE0028D6D1002E01D0F307D2D5013664
:1037E000D0E7AA461F2C11D8013F0A21300000F073
:1037F0001BFC651C30310CAB19550A21300000F060
:1038000013FC092E0ED906002C00EBE755461F2CA1
:103810000CD87B1E002F09D00CAA302111551F0097
:103820000134F4E72B0055461C00F0E71F2C03D8A9
:103830000CAB2E221A5501341F2C10D80A21280057
:1038400000F0CAFB661C30310CAB19550A21280068
:1038500000F0C2FB051E01D03400EDE73400032365
:10386000229A1340012B1CD01F2C06D84346002B54
:1038700032D00CAB2D221A550134229B0393219B8D
:10388000029301940CAB00934B465A460799069855
:10389000FFF7E2FA15B0F0BCBB46B246A946A04617
:1038A000F0BD219B002B13D04346002B02D10C33DB
:1038B00013420FD0219B013B2193190003E00CAB75
:1038C00030221A5501348C42CED21F2CF7D9CBE7C7
:1038D0002199F8E72199F6E7229B5B0704D50CAB09
:1038E0002B221A550134C8E7229B1B07C5D50CAB08
:1038F00020221A550134C0E7FFFFEFFFFFFFEF7FE3
:1039000065CDCD4165CDCDC110F6001014F6001087
:1039100008F6001004F6001000F800100000E03F68
:10392000F0B5DE4657464E464546E0B593B0824672
:103930008B4690461193002900D1EBE200275546B3
:10394000119B1878002800D1E7E2252809D07C1CBB
:1039500043463A005946A847119B0133119327006B
:10396000EEE7013311930024119A11780B00203BEC
:10397000D8B2102803D88300D048C3589F460B0004
:10398000303BDBB2092B2CD92A292FD000230A93F4
:10399000119B1A782E2A39D000239A46119A13784F
:1039A000683BD9B2122976D88B00C549CB589F46BF
:1039B00001231C4301321192D6E702231C4301323A
:1039C0001192D1E704231C4301321192CCE7082362
:1039D0001C4301321192C7E710231C43013211929C
:1039E000C2E711A8FFF726FA0A90D1E71C9B1A1D1F
:1039F0001C921868002804DB0A90119B0133119374
:103A0000C6E702231C4343420A93F6E78022D20012
:103A100014435A1C11925A781300303BDBB2092B25
:103A200004D92A2A07D000239A46B7E711A8FFF73E
:103A300001FA8246B2E71C9B1A1D1C9218680028E6
:103A400004DB8246119B01331193A7E70020F8E7BE
:103A500080235B002343511C119152786C2A01D0C2
:103A60001C0018E0C0239B001C430131119112E09F
:103A700080232343511C11915278682A01D01C00E5
:103A800009E0C0231C430131119104E080235B0055
:103A90001C4301321192119B18780300253BDAB2C6
:103AA000532A00D92CE29300864AD3589F4680239C
:103AB0009B001C4301321192EDE780235B001C4305
:103AC00001321192E7E7782809D0582838D06F28BA
:103AD00038D0622838D010239C430A2600E01026F4
:103AE000582833D0692803D0642801D00C2294438D
:103AF000630501D50122944369282AD0642828D07F
:103B0000A30500D59FE0E30500D5B8E0630600D427
:103B1000CAE01C9A111D1C911168FF220A400594ED
:103B20000A9B049353460393029600230193009249
:103B300043463A0059462800FFF76EFA070027E08F
:103B40001026CDE70826CBE70226C9E7202214433A
:103B5000C8E7A30520D4E30550D4630666D51C9AB4
:103B6000111D1C911168FF220A40D317D11859402A
:103B700005940A9B0493534603930296D20F019235
:103B8000009143463A0059462800FFF745FA0700DE
:103B9000119B01331193D3E61C9BDA1D07218A4345
:103BA000110008311C91116853689C46DB170C9377
:103BB0000D930C9A0D9B100048400E9062465340A6
:103BC0000F930E980F990C9A0D9B801A99410E90A5
:103BD0000F9108940A9B079353460693049600237B
:103BE00005936346DA0F02920090019143463A0032
:103BF00059462800FFF76EFA0700C9E71C9A111D05
:103C00001C911268D317D118594005940A9B04934C
:103C1000534603930296D20F0192009143463A0015
:103C200059462800FFF7F8F90700B1E7230605D544
:103C30001C9A111D1C910023D25E96E71C9A111D3F
:103C40001C91126891E71C9BDA1D07218A43110021
:103C500008311C9108940A9B0793534606930496D7
:103C6000002305930293136854680093019443461C
:103C70003A0059462800FFF72DFA070088E71C9AFA
:103C8000111D1C9105940A9B0493534603930296BD
:103C9000002301931368009343463A0059462800D5
:103CA000FFF7BAF9070073E723060DD51C9A111D1B
:103CB0001C9112681204120C31E7C0461CF6001069
:103CC00060F60010ACF600101C9A111D1C911268D1
:103CD00025E746281AD01C9B0733072293431A0076
:103CE00008321C9204940A9A0392524602925C682B
:103CF0001B680093019443463A0059462800FFF799
:103D000065FC0700119B0133119319E620231C4326
:103D1000E1E7672801D0472802D180231B011C431B
:103D2000452801D0472801D120231C431C9B073381
:103D3000072293431A0008321C9204940A9A0392B1
:103D4000524602925C681B680093019443463A0015
:103D500059462800FFF730FA0700119B01331193F1
:103D6000EEE502231A002240924623421FD001248E
:103D70001C9B1A1D1C927A1C9146187843463A00E7
:103D80005946A8475346002B16D1119B0133119376
:103D90004F46D5E5561C434659462020B8472300D8
:103DA00032005C1C9D42F5D83D001700E0E701237E
:103DB0003A002F000A9DF4E74A46A9460A9D06E00C
:103DC000571C434659462020C84734003A00661C19
:103DD000A542F5D84D469146D7E71C9B1A1D1C926B
:103DE0001B6899465346002B00D1013B4E4601E02B
:103DF000013613003278002A02D05A1E002BF7D168
:103E00004B46F21A10928023DB0026001E401C4213
:103E100003D0524501D95346109302231A00224081
:103E20000B92234205D03A0037004C46A94655462E
:103E300020E03A00109B5F46B3462E0006E0551C7A
:103E4000434639002020B04723002A005C1C0A9911
:103E50009942F4D835005E46BB46109437004C4674
:103E6000A946554606E01D000134561C43465946F6
:103E7000C84732002078002804D0002FF4D06B1EF1
:103E8000002DF0D117004D460B9B002B03D1119B49
:103E90000133119354E50A9F109B06E0561C4346DC
:103EA00059462020A847230032005C1C9F42F5D8C9
:103EB0001700ECE721231C431C9B1A1D1C921B6856
:103EC000009305940823049353460393102302930D
:103ED0000023019343463A0059462800FFF79CF817
:103EE0000700119B013311932AE57C1C43463A00DD
:103EF00059462520A847119B0133119327001FE540
:103F00007C1C43463A005946A847119B0133119344
:103F1000270015E50A4B9A4610E5AA46474502D305
:103F200043465A1E00E03A00434659460020D04717
:103F3000380013B0F0BCBB46B246A946A046F0BD5F
:103F4000252E001000B585B0029003910121009349
:103F500013004A4202A90248FFF7E2FC05B000BD87
:103F6000272E001001480421014B18479002002021
:103F7000A13F0010014B9B681847000090020020F1
:103F800010B5010018231B8814221088984710BD13
:103F900010B5010018231B8816221088984710BD01
:103FA000F0B5C64600B507000E000025012398466F
:103FB00000E00135B5420AD2AC003C192068FFF799
:103FC000DFFF20600028F4D100239846F1E7404647
:103FD00080BCB846F0BD0000124A936F9B0815D212
:103FE0009066D166002905D0FFE7FFE7FFE7516F34
:103FF000106F704704B580210906C2175140002890
:1040000000D0C84302F0E4FC002104BDF0B5146EFA
:10401000556E576F166FFFF7E3FF146655665767C7
:104020001667F0BD000000D0114A936F9B0813D2B1
:1040300010665166002905D0FFE7FFE7FFE7516FE3
:10404000106F704704B5002801D00020C04302F073
:10405000BFFC002104BDC046F0B5146E556E576F0D
:10406000166FFFF7E5FF1466556657671667F0BDD4
:10407000000000D094464E4A926F9208624601D2E8
:1040800030E0C046F0B54A4EB56F6D08FCD3346ED3
:10409000756E776F366F00F025F89446444A1466C3
:1040A0005566576716676246F0BDC0469446404A5B
:1040B000926F9208624601D258E0C046F0B53C4E7D
:1040C000B56F6D08FCD3346E756E776F366F00F088
:1040D0004DF89446364A1466556657671667624629
:1040E000F0BDC046002B24DB11D000293EDA00B51C
:1040F000C943404200D1013100F038F8C943404281
:1041000000D10131DB43524200D1013300BD002A0E
:10411000EBD1002801D1002905D00020C90FC90723
:1041200001D1C043410800B502F04AFC002200233F
:1041300000BD00B500290ADBDB43524200D1013348
:1041400000F014F8C943404200D1013100BDC94319
:10415000404200D10131DB43524200D1013300F033
:1041600005F8DB43524200D1013300BD002923D1C1
:10417000002B18D1002A0CD0BC460D4F38667A6649
:1041800000210023FFE7FFE7FFE77A6F386F6746FC
:104190007047002801D00748010000B502F010FC6C
:1041A0000022002300BD02000B0000200021704708
:1041B000000000D0FFFFFFFF002B00D0BFE0130C7A
:1041C00028D1002AE7D080B4114F39667A66FFE71C
:1041D000FFE730B4040C7B6F396F1B0423433B664D
:1041E0007A66FFE7FFE7FFE7C04684B27B6F3D6F6B
:1041F0001B0423433B667A66FFE7FFE7C0460023C4
:104200002C042D0C7A6F386F00196941B0BC7047CF
:10421000000000D0F0B594460025140E01D1120222
:104220000835140F01D112010435940F01D1920009
:104230000235D40F01D152000135D40B0134254F82
:104240007C66254C3C660E0C93B2FFE7FFE7FFE768
:104250003C6F6643360C7703BE467343DF0B5B044B
:10426000C01AB941130C7343DB18C91ACE08664350
:10427000360CB64493B273431F0F1B01C01AB941E9
:10428000130C73431F0B1B05C01AB941860D8F0217
:104290003E436643360C092D24DB520A7243801AD2
:1042A0007703460A6643360C16235B1BDE40DF406D
:1042B000BF1964466643821B70460435063301000D
:1042C000D940A840C01900D30131A24206D2002330
:1042D000F0BD0000000000D0FFFFFFFF121B013007
:1042E000F3D3F1E709277F1BFE406446A2B2724375
:1042F000801A00D20139220C7243130C1204821A64
:1043000099410B007046043513370100F940A8406D
:10431000801900D30131002B02D1A2420AD2F0BD94
:10432000013000D30131121BFAD2013BF8D1A24275
:1043300000D2F0BD013000D30131121BF7E7F0B518
:104340001C0C00D080E00CB400251C0A04D11B0218
:10435000160E3343120208351C0B04D11B01160F35
:104360003343120104359C0B04D19B00960F334359
:1043700092000235DC0B02D192185B4101351C0022
:10438000971864410134464F7C66464C3C660E0CDF
:10439000FFE7FFE7FFE7C0463C6F6643360C770355
:1043A000BE4697B27743C01B00D20139C01B00D272
:1043B00001399FB27743C91BC91B170C77437E0491
:1043C000FF0B801BB941CE086643360C0C2D33DB46
:1043D000B644120B1F053A431B0B97B27743C01B21
:1043E00000D201399FB27743C91B170C77433E04B3
:1043F0003F0C801BB941860D8F023E43664329273F
:104400007F1BFE400C3D7746AF40BF1930BCA2B2C7
:10441000ABB272437343801A9941220C7243130C5E
:104420001204801A994102000B000137001BA941B8
:10443000F9D2781E0021F0BD0C277F1BFE40774685
:104440007F0BAF40FF19E0E700245D1C07D0144F3D
:104450007D663966FFE7FFE7FFE7FFE73C6F95B250
:104460009EB265436643401BB141150C1E0C65436B
:10447000664336042F0C3E432D04401BB141994244
:1044800004D202000B0020000021F0BD01D19042B7
:10449000F7D3801A994101349942F2D3F6E700002C
:1044A000000000D0FFFFFFFF48404140484018B4E3
:1044B0001B4B5B68FC46019308BD04DFCB47001033
:1044C00018B4174B1B68FC46019308BD00DFD547A5
:1044D00000109446134A926F920809D2624618B4AB
:1044E0000F4BDB68FC46019308BD0CDF8D4A0010C2
:1044F0000C4AF0B5146E556E576F166F6246FFF793
:10450000EEFF084A1466556657671667F0BD18B483
:10451000034B9B68FC46019308BD08DF314900103E
:1045200038820020000000D0FFB55040424050408B
:1045300059404B40594000E0FFB5154F4C00640D09
:1045400003D0BC4204D10C0314D80020090D090586
:104550005C00640D03D0BC4204D11C030AD80022C5
:104560001B0D1B0501264B4009D44B4003D58B4244
:1045700000D18242FFBD9942FCD19042FFBD0B4366
:10458000DB1803431343F5D0C9434918FFBD0000AE
:10459000FF07000000B5FFF7CFFF804100BDC04618
:1045A00000B5FFF7C9FF01D9002000BD012000BD03
:1045B00000B5FFF7B9FF01D9002000BD012000BD03
:1045C00000B5FFF7B1FF804100BD012040054A0062
:1045D000121804D85A00121801D800207047012080
:1045E00070470020704700000021002805D1704767
:1045F000C1174840401AFAD0C90713B5064B1B68CB
:1046000098470CBC441CA2401005120B0349091B1F
:1046100009051943114310BD388300201F04000011
:1046200010B54C00620D8023D218DB00D21A5B0556
:104630007E2A10DD9E3A13DACC1709034908194384
:104640005242D140640001341532202A05DAD040AC
:104650000843604310BD002010BD0846604310BDF4
:10466000C80FC018013810BD18B4044B5B6AFC4673
:10467000019308BD24DF3D4C00100000388200206B
:1046800018B4044BDB6FFC46019308BD7CDFBD4CC6
:10469000001000003882002018B4044BDB6CFC468C
:1046A000019308BD4CDF694E0010000038820020E5
:1046B00018B4044B1B6DFC46019308BD50DF054F39
:1046C000001000003882002070B513231C78012CE4
:1046D00014D0012C14DC022C02DC1F4A1F4B9A64FC
:1046E0001F48FFF74DFC1F4B186070BD99001A481A
:1046F0001A4A885001331F2BF8D9EAE70023FAE75A
:104700001948FFF745FC05001848FFF741FC02383F
:1047100003789B007F2B19DD802229000F4801F0D0
:104720001DF9022CD7D1124B1A88B5231B029A42CD
:1047300009D1104B1A88104B9A4204D10F4B1A889A
:104740000F4B9A42C7D00020FEF782F90D4B0E4A5C
:1047500032210E48FEF7E2F891470010388200201F
:104760004C330000388300205344000053460000BF
:1047700054380000D8380000494600009C3800003A
:104780005946000050F80010F4F80010B0F800107E
:1047900007B56046002800D100BE01880A0A023031
:1047A000DF2AFAD1C9B2820804D302884088000403
:1047B000104300E00068024A5050039007BD00001B
:1047C000388200200FB403BC0CBCF0B50124E40710
:1047D000634000E0F0B50C0DCF0F661E3605891B57
:1047E000640503D3C943404200D30131640D03D0B3
:1047F000661CF60A07D0E41B00207F00791C89079D
:104800008912803C24031D0DDF0F6E1E36059B1B95
:104810006D0503D3DB43524200D301336D0D03D04A
:104820006E1CF60A07D0ED1B00227F007B1C9B0745
:104830009B12803D2D032F1B661B58D4A446202EAF
:1048400046DA20371400BC401D00BD40F240334121
:104850002A4380185941CB0F05D0C943C0430022D9
:1048600064425041514162464D0D28D10D0D07D192
:1048700000281FD0241940414941013A0D0DF9D0BB
:10488000640006D3013000D30131002C01D140086F
:104890004000013A0BD4941CE40A04D112051144DF
:1048A000DB071944F0BDD907204B194300E0D907B5
:1048B0000020F0BD0029DDD1002CDBD1F0BD01329C
:1048C000C6074008CD0728434908002EE1D0D9E7A4
:1048D0003C2E29DA203E40371400BC4000D0012491
:1048E000F24014431A00BB401C43D317ACE7AC465C
:1048F000202F08DA20360400B4400D00B540F840FF
:1049000039412843A5E73C2F0CDA203F403604000C
:10491000B44000D00124F84004430800B1400C43E7
:10492000C117EAE710001900002494E70000F07FA7
:10493000F0B50C0D661E3605891BE60A6405640D8C
:1049400002D0651CED0A04D0002001210905803C3D
:104950002403A4461C0D671E3F05DB1BE70A640504
:10496000640D02D0651CED0A04D0002201231B0552
:10497000803C24037740644497B484B296B2744375
:10498000070C7E43150C6F4380B26843361802D380
:10499000012000043F183004350C00197D41844685
:1049A00088B29AB250430C0C62431F0C7C438EB207
:1049B0007E43921902D301263604A4191604170C5B
:1049C0003618674101BC81B29AB25143040C62436C
:1049D0001B0C5C4380B25843121802D30120000420
:1049E00024181004130C401863412D185E41002058
:1049F000474106BC88B293B258430C0C6343120C77
:104A0000544389B251435B1802D30121090464184D
:104A100019041A0C091862416D18564100204741CB
:104A200018BCF902720D1143F0026A0D1043ED0239
:104A30000A0D03D16D1940414941013B124E9B1BA8
:104A40007600B3420ED26D0007D3013000267141CB
:104A50006646354301D1400840001B05C918E407EC
:104A60002144F0BD0BDA013306D1013004D101310C
:104A70004F0D01D04908F2E7E1070020F0BD0136F3
:104A800031050020EBE70000FF030000F0B51C0D2E
:104A9000671E3F05DB1BE70A6405640D02D0661C38
:104AA000F60A04D0002201231B05803C2403D025F4
:104AB0002D060026F6432E661E096E66CE0FF619E9
:104AC000B44649004F0D02D07E1CF60A03D00020E8
:104AD0000021403F3F033E1BB600B444013F7F0529
:104AE000C91B49082E6F013676089C02950D254397
:104AF0007543ED137543AD1301356D10F603761B49
:104B00000CB4CC02450D2C43A2B2B3B25A43270CCD
:104B10007B43350C6F43A4B26C431B1902D30124B1
:104B200024043F191C041D0CA4187D4124196D4157
:104B3000009A91B2ACB26143170C7C432B0C5F43DB
:104B400092B25A43A41802D301221204BF182204BD
:104B5000230C52187B41019C6C431B19520ED90146
:104B60000A434401A01A81B2B2B2514303145A431A
:104B7000360C734387B27743D617D21900277E418C
:104B800036049B191704160C7F185E417316ED1836
:104B9000F301002680337541A90F06D16400690A2C
:104BA000E8055B0A184309D22FE0042294448033BD
:104BB0007541A90AA8059B0A184326D340414941DB
:104BC0002404009A019B0D005543641B4343E41ADF
:104BD00095B286B27543170C7E43030C5F4392B2C5
:104BE0005A43B61802D301221204BF183204330C00
:104BF00052197B4152429C41002C02D400220130C8
:104C000051414008CA071043490802B06246D7071D
:104C10009210084BD218084B9A4203D212058918F9
:104C2000C919F0BD0020002A01DC3900F0BD0133B4
:104C30001905F5E7FD030000FE070000002200B59E
:104C4000203200F004F8080000BD000000220B151F
:104C50000AD410B5944600F0A7F81414013400DA11
:104C60000021CB17144C20470020002170476244DC
:104C7000343A0CD40C2A07DA040091409040524296
:104C80002032D440214310BDD843D94310BD203237
:104C900007D40C469440524220321141D040204368
:104CA00010BD0800C917203203D4524220321041EF
:104CB00010BD1800190010BD6F4C00104A00520DB5
:104CC000144BD21A13DDFF2A1EDAD205CB0FDB07F5
:104CD0001A43C300400F0903490A084310435B000D
:104CE00001D301D0013070474308FBD2704702D096
:104CF000C80FC00770470A0312130132F8D1420FE0
:104D0000072AF5D1012200E0FF22C80F0002801817
:104D1000C00570478003000000210A00002104E064
:104D200000210A00C11704E00022002306E0C0466B
:104D30000022CB1758405940C01A994130B5184C41
:104D4000A21A002903D1010010D00020203A4C15EE
:104D500012D104D2013A001849414C0DFAD3114C3A
:104D6000A24204D212058918DB07C91830BDD2430C
:104D7000520D00200021F5E703D4013A0018494103
:104D8000FBD50B324405C00A4D052843C90A64000F
:104D900003D0002460416141E1E7E0D34408F8E733
:104DA00032040000FE0700000A0DCC0F531E1B0545
:104DB000C91A520503D3C943404200D30131520DF1
:104DC00003D0531CDB0A07D0121B00206400611CB7
:104DD00089078912803A1203014BD21A70470000EA
:104DE000FF030000023225D40C2A1CDA1125AD1A6B
:104DF0000B002B41083207350600EE4090409140F1
:104E00003143F0CC63431A1500235A4155435643AE
:104E10005743BF02F412760576196741ED177F19E3
:104E2000801BB94170470C220020C917490001318D
:104E30000905DBE70902030E194300025342203241
:104E400008D40C0019419440D8402043002250411E
:104E5000514170470800C917203B2032F1D500208E
:104E60000021002270470000F0B5FFF79DFF54A419
:104E7000FFF7B8FF002904DA204C214D00196941E1
:104E8000013A04B4012752A6002201239B0730CE29
:104E9000B446001BA9410BD47E4220361D003D4183
:104EA0001C00B4401600FE40344362416B4101E0F7
:104EB0000019694166460137212FE8D185B29EB2BB
:104EC000754307147E43190C4F4384B24C43F117CA
:104ED00036190024614109047F183404310C641927
:104EE0007941A40F8800204389178018594104BCD8
:104EF00052423E32FFF71DFFF0BD00006BDE73F43F
:104F0000FD855C2CF0B54F0050D27F154ED0013797
:104F10004FD0FFF749FF04B44902C20D11434002CC
:104F200001272BA6B446002200237E4220360D0026
:104F30003D410C00B4400600FE40344344414D4125
:104F4000AE0F05D120002900664630CE121BAB41C2
:104F50000824A4440137212FE7D1890089101218B1
:104F60004B4180BC17A413CC0137784379437C4371
:104F70004F05C912CD17C0196941A702A415CD1755
:104F8000C9196C41DD17801859416C413E22CD177B
:104F9000AC4208D000090E07304309092607314307
:104FA0002411043AF3E7FFF7C4FEF0BD02490020E4
:104FB000F0BD02490020F0BD0000F0FF0000F07FCE
:104FC000AAB800006BDE1300A3EF0F0021170B003F
:104FD000F34B98BFEC23F319D6104DCDE3FB470EEE
:104FE0007AB9BC8ADBC18907CC542C021846E1038C
:104FF000053083E7B029F8011E1FE0874505FE0054
:10500000249E41ACA9807F008117624515E03F00D6
:10501000E610ABA902F81F008858455500FE0F00A6
:10502000C4AAA90A80FF070056455501E0FF030006
:10503000ABA92A00F8FF010045550500FEFF00005E
:10504000AAAA0080FF7F0000551500E0FF3F000086
:10505000AB0200F8FF1F0000550000FEFF0F00002C
:105060000B0080FFFF0700000100E0FFFF030000CE
:105070000000F8FFFF0100000000FEFFFF0000003D
:105080000080FFFF7F00000000E0FFFF3F00000006
:1050900000F8FFFF1F00000000FEFFFF0F000000F0
:1050A00080FFFFFF07000000E0FFFFFF030000009C
:1050B000F8FFFFFF01000000FEFFFFFF00000000FF
:1050C0000000008000000000000000400000000020
:1050D00051434343C9188C46110C83B24B4310B45F
:1050E000040C614392B280B2504362431C041B0C17
:1050F000001910BC59411304120CC01851416144ED
:105100007047000048404140484000239C46114BF6
:105110005B68184700239C460E4B1B6818470E4AD5
:10512000936F9B0804D200239C460A4BDB68184708
:10513000F0B5146E556E576F166FFFF7F4FF064A01
:105140001466556657671667F0BD00239C46014BF1
:105150009B6818473C830020000000D007B54840FA
:105160004140484001E0C04607B54200120E03D05E
:10517000FF2A03D1420218D8C00DC0054A00120E02
:1051800003D0FF2A03D14A020FD8C90DC905012255
:10519000414005D4414001D5814207BD884207BD49
:1051A0000143491801D0C043001807BD00B5FFF7FF
:1051B000DBFF01D0002000BD012000BD491A0028FE
:1051C00008D1084670470000C10FC90700D540420A
:1051D000002817D0F44603B40B4B1B68984706BC55
:1051E00081409E384042803107D20B0607D04900EB
:1051F000490AC0051043084360470130F8E7490AEF
:105200008902F5E7704700003883002041000A0E4C
:1052100080231B067E2A0BDD9E3A0BDAC117400263
:10522000400818435242D04049000131484370477A
:1052300000207047C00FC01801387047C0420DD31E
:1052400000B540004008002100F012F8002801D409
:10525000404200BD8020000600BD0000034BDB691A
:10526000FC4618471CDFD558001000003C83002086
:1052700000239C46014B5B6A184700003C830020DA
:1052800000239C46014B1B6B184700003C83002009
:10529000034BDB6FFC4618477CDFED580010000025
:1052A0003C8300204100090E862904DA00239C4635
:1052B000044B1B6C1847044900B500F0ECFA02BC23
:1052C0008E46F3E73C830020DB0FC94070B5132303
:1052D0001D782A48FEF75CFE0400012D11D0012D37
:1052E00009DDA31E1B789B007F2B40DD802221005F
:1052F000234800F033FB2348FEF742FE224B1860A0
:1053000070BD542201001E4800F028FB1F4B1A8874
:105310001F4B9A421CD1A7239B011A881D4B9A420E
:1053200016D11D4B1A881D4B9A4211D11C4B1A885D
:1053300094239B019A420BD11A4B1A881A4B9A421A
:1053400006D11A4B1A681A4B9A4201D1152307E06D
:105350001848FDF77DFB99001748094A885001332A
:105360001F2BF8D9144A064B1A62DA61B7E7134BC0
:10537000134A42211348FDF7D1FAC04653460000B4
:105380003C8300204C33000038830020EE290000CD
:10539000C40F0000C20D0000962B0000C0B5000035
:1053A000182B0000CC2A000010B50000FC2C0000D7
:1053B00051ED8764ACF30010A158001008F90010FB
:1053C0007CF900103CF9001070B5051C0C00012997
:1053D0000CD0C90F09194910FFF7F6FF011CFFF7A0
:1053E000B4FEE30702D5291CFFF7AFFE70BDF0B590
:1053F000C64600B505000F00161E98461BDDC911F4
:1054000001204042FEF710FE00220EE00C236C1239
:1054100044431D21C91A0C41013464109D402100F0
:1054200079436D1A9A401219F61A002E05DD0C2EDA
:10543000ECDC3300EBE70020E6E7BD4201DBED1BCF
:105440000132BD4201DBED1B0132002D09DB002DD5
:105450000ADB4346002B00D01A60280080BCB84607
:10546000F0BDED19013AF2E7ED19013AF1E700005C
:10547000F0B5C64600B5041C0D1C0700C60F002879
:1054800030DACA0DFF2313407F3B1CD41722D31AF6
:105490001BD4163A9A40013A0A4218D1172B18D059
:1054A0000A00DA4001231340002B14D080231B068E
:1054B000F818291CFFF7DCFF80231B069C4660447C
:1054C00080BCB846F0BD0023EEE70023ECE70023E4
:1054D000EAE70123E8E780231B06F818291CFFF7F9
:1054E000C7FFEDE7081CFFF791FE8046E30DFF20A4
:1054F00002001A40184204D0FF2A1FD06202534211
:105500005A41002A1CD14346002B4CD02033402B5B
:1055100037D9201CFFF7BCFEFFF7CAF806000F00C2
:10552000281CFFF7B5FE02000B0030003900FEF723
:10553000EEFFFFF7B1F8FFF7A3F8C1E70022E0E7BD
:10554000F80DFF2738407F384346FF2B05DC174B0B
:10555000984504DA154B984601E0FF2398464346E8
:10556000584303007F33002B09DDFE2B05DCC60505
:10557000FE239B059C46664401E0FF26F605301C91
:105580009EE74346002B04DB4146201CFFF71CFF2F
:1055900096E7211CFE208005FFF7C1FD041C434651
:1055A0005B429846F0E7FE20800589E700FFFFFF99
:1055B000F8B5041C0D1CFE218905FFF7F7FD002836
:1055C0002DD1EE0DFF231F003740334227D07849FD
:1055D000201CFFF7EBFD002802D0FF2F00D1D1E007
:1055E000E30DFF22110019401A423AD1002D1BDBB6
:1055F000EA0DFF2313407F3B0CD41722D31A09D4A2
:10560000163A9A40013A2A4204D1172B0AD0DD40BB
:1056100001212940002900D1B7E0201C01E0FE2033
:105620008005F8BD0121F5E7EA0DFF2313407F3B1C
:105630000CD41722D31A09D4163A9A40013A2A42B6
:1056400004D1172B0BD0DD4001212940002900D1C6
:105650009DE0E40FE407FF20C0052043E1E70121BE
:10566000F4E7FF2B1AD0534A93421BD0FF2E58D099
:10567000504B9E4259D0EB0DFF210A001A401942AF
:1056800058D07F3A5ED417239A1A002A5CDD163B65
:105690009340013B2B4259D101234CE0002D79DA94
:1056A0000020BEE7002D1DDBEA0DFF2313407F3BEA
:1056B00010D41722D31A0FD4163A9A40013A2A422C
:1056C0000CD1172B0CD0DD4001231D40002D64D0E0
:1056D0003948A6E70025F9E70025F7E70025F5E7B3
:1056E0000125F3E7EA0DFF2313407F3B11D4172276
:1056F000D31A10D4163A9A40013A2A420DD1172BE8
:105700000DD0DD4001231D40002D49D08020000632
:1057100087E70025F8E70025F6E70025F4E70125EF
:10572000F2E77E293EDC00207BE77E293DDCFF207E
:10573000C00576E70123002B0AD1002C0DDAFF20EB
:10574000C0056EE70023F6E70123F4E70023F2E744
:10575000291C201CFFF78CFE63E7201CFFF798FD37
:10576000FEF7A6FF06000F00281CFFF791FD0200C0
:105770000B0030003900FEF7CAFEFEF78DFFFEF782
:105780007FFF4EE7FE2080054BE7002049E7FF2022
:10579000C00546E7FF20C00543E7FF20C00540E7FE
:1057A00000203EE7FF20C0053BE7002039E7C04668
:1057B000000080BFFF010000000080FFF0B5CE4672
:1057C000474680B583B01600C30F9946C30DFF242A
:1057D000234045026D0A8022120490461543CF0FE4
:1057E000CA0D14404902490A42460A439046002E17
:1057F00001D000213160FF2B41D0002C42D0002B82
:1058000047D0FF2C40D0611E99423DDC23D04A4650
:10581000002A00D06D421A1B01AB41462800FFF759
:10582000E6FD4300434503DC07D1019BDB0704D5BC
:105830004346C01A019B01330193002F02D0019B04
:105840005B420193002E01D0019B33609621091B1E
:10585000FFF716FD18E0454516DD4B46002B06D137
:1058600043465800281A012301930C00E5E74346FC
:105870005800401B01235B4201930C00DDE7FF2031
:10588000C00501E0FF20C00503B0C0BCB946B0466A
:10589000F0BD0020F8E710B50022FFF78FFF10BD24
:1058A00007B56046002800D100BE01880A0A023010
:1058B000DF2AFAD1C9B2820804D3028840880004E2
:1058C000104300E00068024A5050039007BD0000FA
:1058D0003C8300200021C2158032803201D0024A70
:1058E0001047002070470000CD2A0000C30FDB07DF
:1058F00041000A0E07D0FF2A08D00909054A891875
:105900001943400770471900002070470249C91821
:10591000FAE70000000000380000F07F10B5040036
:1059200000F0DCFB002804D00419034B9C4200D893
:1059300010BD0248FDF78CF80000042090F900101B
:1059400001480421014B1847A0020020A13F00108C
:10595000014B1B6818470000A0020020014B5B6848
:1059600018470000A002002010B5FFF7D7FF10BDB8
:1059700010B5FFF7D3FF10BD10B5030008001100EC
:105980001B68984710BD0000F8B507000D00160011
:10599000437C002B02D0002400200CE0036811009F
:1059A000280098472DE03B7C10E0022115483B6819
:1059B0009847601C0134B44214DA002CF3DD2B1933
:1059C000013B1B780D3B5A425341DBB22A5D0A2A48
:1059D000F0D1002BEED1A042E7DA211A28183B685B
:1059E0009847E2E7B04203DA311A28183B68984733
:1059F000002E06DDAD19013D2B780D3B5A42534177
:105A00003B74F8BD04FA001070B505000368002B64
:105A100016D00C4B1C6805E0290004C92000FFF7D4
:105A2000B3FFE468002C09D02368002BF9D0064BA3
:105A30001B68002BF0D0A342F3D1EDE700232B60CD
:105A400070BDC046188200202082002070B505007D
:105A50000C000B68802B05D021684B1C2360641858
:105A6000257170BD0800FFF7CFFFF5E710B582B0D4
:105A7000D0231B0600241C5701A9074800F0B0FFE3
:105A8000002806D1019B9C4203D0034800F0B8FFD8
:105A9000012002B010BDC046F00A002010B5024837
:105AA00000F086FF10BDC046F00A0020F0B5CE46DB
:105AB000474680B583B006000D0090461C00FFF7F6
:105AC000D5FF81466B1C05D0002C08D0194F1A4B0E
:105AD0001C6807E0300000F009FE0500F4E7174FEE
